{
  "_format": "hh-sol-artifact-1",
  "contractName": "LendingPool",
  "sourceName": "contracts/LendingPool.sol",
  "abi": [
    {
      "inputs": [
        {
          "internalType": "address",
          "name": "_initialOwner",
          "type": "address"
        },
        {
          "internalType": "address",
          "name": "_gateway",
          "type": "address"
        },
        {
          "internalType": "address",
          "name": "_lendingToken",
          "type": "address"
        },
        {
          "internalType": "address",
          "name": "_rwaToken",
          "type": "address"
        },
        {
          "internalType": "address",
          "name": "_rwaOracle",
          "type": "address"
        },
        {
          "internalType": "address",
          "name": "_gasService",
          "type": "address"
        }
      ],
      "stateMutability": "nonpayable",
      "type": "constructor"
    },
    {
      "inputs": [],
      "name": "InvalidAddress",
      "type": "error"
    },
    {
      "inputs": [],
      "name": "NotApprovedByGateway",
      "type": "error"
    },
    {
      "inputs": [
        {
          "internalType": "address",
          "name": "owner",
          "type": "address"
        }
      ],
      "name": "OwnableInvalidOwner",
      "type": "error"
    },
    {
      "inputs": [
        {
          "internalType": "address",
          "name": "account",
          "type": "address"
        }
      ],
      "name": "OwnableUnauthorizedAccount",
      "type": "error"
    },
    {
      "anonymous": false,
      "inputs": [
        {
          "indexed": false,
          "internalType": "uint256",
          "name": "loanId",
          "type": "uint256"
        },
        {
          "indexed": false,
          "internalType": "uint256",
          "name": "collateralId",
          "type": "uint256"
        },
        {
          "indexed": false,
          "internalType": "address",
          "name": "borrower",
          "type": "address"
        }
      ],
      "name": "CollateralReleased",
      "type": "event"
    },
    {
      "anonymous": false,
      "inputs": [
        {
          "indexed": false,
          "internalType": "uint256",
          "name": "loanId",
          "type": "uint256"
        }
      ],
      "name": "CrossChainLoanRepaid",
      "type": "event"
    },
    {
      "anonymous": false,
      "inputs": [
        {
          "indexed": false,
          "internalType": "uint256",
          "name": "loanId",
          "type": "uint256"
        },
        {
          "indexed": false,
          "internalType": "address",
          "name": "borrower",
          "type": "address"
        },
        {
          "indexed": false,
          "internalType": "uint256",
          "name": "amount",
          "type": "uint256"
        },
        {
          "indexed": false,
          "internalType": "uint256",
          "name": "collateralId",
          "type": "uint256"
        }
      ],
      "name": "LoanCreated",
      "type": "event"
    },
    {
      "anonymous": false,
      "inputs": [
        {
          "indexed": false,
          "internalType": "uint256",
          "name": "loanId",
          "type": "uint256"
        },
        {
          "indexed": false,
          "internalType": "address",
          "name": "liquidator",
          "type": "address"
        }
      ],
      "name": "LoanLiquidated",
      "type": "event"
    },
    {
      "anonymous": false,
      "inputs": [
        {
          "indexed": false,
          "internalType": "uint256",
          "name": "loanId",
          "type": "uint256"
        }
      ],
      "name": "LoanRepaid",
      "type": "event"
    },
    {
      "anonymous": false,
      "inputs": [
        {
          "indexed": true,
          "internalType": "address",
          "name": "previousOwner",
          "type": "address"
        },
        {
          "indexed": true,
          "internalType": "address",
          "name": "newOwner",
          "type": "address"
        }
      ],
      "name": "OwnershipTransferred",
      "type": "event"
    },
    {
      "inputs": [],
      "name": "INTERSEST_RATE",
      "outputs": [
        {
          "internalType": "uint256",
          "name": "",
          "type": "uint256"
        }
      ],
      "stateMutability": "view",
      "type": "function"
    },
    {
      "inputs": [],
      "name": "LIQUIDATION_THRESHOLD",
      "outputs": [
        {
          "internalType": "uint256",
          "name": "",
          "type": "uint256"
        }
      ],
      "stateMutability": "view",
      "type": "function"
    },
    {
      "inputs": [
        {
          "internalType": "uint256",
          "name": "_amount",
          "type": "uint256"
        },
        {
          "internalType": "uint256",
          "name": "_startTime",
          "type": "uint256"
        },
        {
          "internalType": "uint256",
          "name": "_duration",
          "type": "uint256"
        }
      ],
      "name": "calculateInterest",
      "outputs": [
        {
          "internalType": "uint256",
          "name": "",
          "type": "uint256"
        }
      ],
      "stateMutability": "view",
      "type": "function"
    },
    {
      "inputs": [
        {
          "internalType": "uint256",
          "name": "_amount",
          "type": "uint256"
        },
        {
          "internalType": "uint256",
          "name": "_collateralId",
          "type": "uint256"
        },
        {
          "internalType": "uint256",
          "name": "_duration",
          "type": "uint256"
        }
      ],
      "name": "createLoan",
      "outputs": [],
      "stateMutability": "nonpayable",
      "type": "function"
    },
    {
      "inputs": [
        {
          "internalType": "bytes32",
          "name": "commandId",
          "type": "bytes32"
        },
        {
          "internalType": "string",
          "name": "sourceChain",
          "type": "string"
        },
        {
          "internalType": "string",
          "name": "sourceAddress",
          "type": "string"
        },
        {
          "internalType": "bytes",
          "name": "payload",
          "type": "bytes"
        }
      ],
      "name": "execute",
      "outputs": [],
      "stateMutability": "nonpayable",
      "type": "function"
    },
    {
      "inputs": [
        {
          "internalType": "bytes32",
          "name": "commandId",
          "type": "bytes32"
        },
        {
          "internalType": "string",
          "name": "sourceChain",
          "type": "string"
        },
        {
          "internalType": "string",
          "name": "sourceAddress",
          "type": "string"
        },
        {
          "internalType": "bytes",
          "name": "payload",
          "type": "bytes"
        },
        {
          "internalType": "string",
          "name": "tokenSymbol",
          "type": "string"
        },
        {
          "internalType": "uint256",
          "name": "amount",
          "type": "uint256"
        }
      ],
      "name": "executeWithToken",
      "outputs": [],
      "stateMutability": "nonpayable",
      "type": "function"
    },
    {
      "inputs": [],
      "name": "gasService",
      "outputs": [
        {
          "internalType": "contract IAxelarGasService",
          "name": "",
          "type": "address"
        }
      ],
      "stateMutability": "view",
      "type": "function"
    },
    {
      "inputs": [],
      "name": "gateway",
      "outputs": [
        {
          "internalType": "contract IAxelarGateway",
          "name": "",
          "type": "address"
        }
      ],
      "stateMutability": "view",
      "type": "function"
    },
    {
      "inputs": [
        {
          "internalType": "string",
          "name": "destinationChain",
          "type": "string"
        },
        {
          "internalType": "string",
          "name": "destinationAddress",
          "type": "string"
        },
        {
          "internalType": "uint256",
          "name": "_amount",
          "type": "uint256"
        },
        {
          "internalType": "uint256",
          "name": "_collateralId",
          "type": "uint256"
        },
        {
          "internalType": "uint256",
          "name": "_duration",
          "type": "uint256"
        }
      ],
      "name": "initiateCrossChainLoan",
      "outputs": [],
      "stateMutability": "payable",
      "type": "function"
    },
    {
      "inputs": [],
      "name": "lendingToken",
      "outputs": [
        {
          "internalType": "contract IERC20Metadata",
          "name": "",
          "type": "address"
        }
      ],
      "stateMutability": "view",
      "type": "function"
    },
    {
      "inputs": [
        {
          "internalType": "uint256",
          "name": "",
          "type": "uint256"
        }
      ],
      "name": "loans",
      "outputs": [
        {
          "internalType": "uint256",
          "name": "amount",
          "type": "uint256"
        },
        {
          "internalType": "uint256",
          "name": "collateralId",
          "type": "uint256"
        },
        {
          "internalType": "uint256",
          "name": "startTime",
          "type": "uint256"
        },
        {
          "internalType": "uint256",
          "name": "duration",
          "type": "uint256"
        },
        {
          "internalType": "address",
          "name": "borrower",
          "type": "address"
        },
        {
          "internalType": "bool",
          "name": "isActive",
          "type": "bool"
        }
      ],
      "stateMutability": "view",
      "type": "function"
    },
    {
      "inputs": [],
      "name": "nextLoanId",
      "outputs": [
        {
          "internalType": "uint256",
          "name": "",
          "type": "uint256"
        }
      ],
      "stateMutability": "view",
      "type": "function"
    },
    {
      "inputs": [],
      "name": "owner",
      "outputs": [
        {
          "internalType": "address",
          "name": "",
          "type": "address"
        }
      ],
      "stateMutability": "view",
      "type": "function"
    },
    {
      "inputs": [],
      "name": "renounceOwnership",
      "outputs": [],
      "stateMutability": "nonpayable",
      "type": "function"
    },
    {
      "inputs": [
        {
          "internalType": "uint256",
          "name": "_loanId",
          "type": "uint256"
        },
        {
          "internalType": "string",
          "name": "destinationChain",
          "type": "string"
        },
        {
          "internalType": "string",
          "name": "destinationAddress",
          "type": "string"
        }
      ],
      "name": "repayCrossChainLoan",
      "outputs": [],
      "stateMutability": "payable",
      "type": "function"
    },
    {
      "inputs": [
        {
          "internalType": "uint256",
          "name": "_loanId",
          "type": "uint256"
        }
      ],
      "name": "repayLoan",
      "outputs": [],
      "stateMutability": "nonpayable",
      "type": "function"
    },
    {
      "inputs": [],
      "name": "rwaOracle",
      "outputs": [
        {
          "internalType": "contract RWAOracle",
          "name": "",
          "type": "address"
        }
      ],
      "stateMutability": "view",
      "type": "function"
    },
    {
      "inputs": [],
      "name": "rwaToken",
      "outputs": [
        {
          "internalType": "contract ERC721",
          "name": "",
          "type": "address"
        }
      ],
      "stateMutability": "view",
      "type": "function"
    },
    {
      "inputs": [],
      "name": "sourceAddress",
      "outputs": [
        {
          "internalType": "string",
          "name": "",
          "type": "string"
        }
      ],
      "stateMutability": "view",
      "type": "function"
    },
    {
      "inputs": [],
      "name": "sourceChain",
      "outputs": [
        {
          "internalType": "string",
          "name": "",
          "type": "string"
        }
      ],
      "stateMutability": "view",
      "type": "function"
    },
    {
      "inputs": [
        {
          "internalType": "address",
          "name": "newOwner",
          "type": "address"
        }
      ],
      "name": "transferOwnership",
      "outputs": [],
      "stateMutability": "nonpayable",
      "type": "function"
    }
  ],
  "bytecode": "0x60c06040523480156200001157600080fd5b50604051620026803803806200268083398101604081905262000034916200015f565b85856001600160a01b0381166200005e5760405163e6c4247b60e01b815260040160405180910390fd5b6001600160a01b03908116608052600160005581166200009857604051631e4fbdf760e01b81526000600482015260240160405180910390fd5b620000a381620000f0565b506001600160a01b0390811660a052600280546001600160a01b03199081169583169590951790556003805485169382169390931790925560048054909316911617905550620001e09050565b600180546001600160a01b038381166001600160a01b0319831681179093556040519116919082907f8be0079c531659141344cd1fd0a4f28419497f9722a3daafe3b4186f6b6457e090600090a35050565b80516001600160a01b03811681146200015a57600080fd5b919050565b60008060008060008060c087890312156200017957600080fd5b620001848762000142565b9550620001946020880162000142565b9450620001a46040880162000142565b9350620001b46060880162000142565b9250620001c46080880162000142565b9150620001d460a0880162000142565b90509295509295509295565b60805160a051612449620002376000396000818161026c015281816106bb01526112d20152600081816101c1015281816107d8015281816108c501528181610a47015281816114cd015261154d01526124496000f3fe60806040526004361061012a5760003560e01c806387c51459116100ab578063aaaca5581161006f578063aaaca5581461032c578063ab7b1c891461034c578063b0fa84441461036c578063e1ec3c6814610381578063e5894a8014610418578063f2fde38b1461042b57600080fd5b806387c51459146102a35780638aec6463146102b95780638da5cb5b146102d9578063904b513b146102f757806390a8ae9b1461031757600080fd5b80631c6ffa46116100f25780631c6ffa4614610203578063491606581461022557806359afec70146102455780636a22d8cc1461025a578063715018a61461028e57600080fd5b806305e1bd8c1461012f57806309498f46146101625780630c5bf35114610177578063116191b6146101af5780631a98b2e0146101e3575b600080fd5b34801561013b57600080fd5b5061014f61014a366004611a26565b61044b565b6040519081526020015b60405180910390f35b610175610170366004611b17565b6104a5565b005b34801561018357600080fd5b50600354610197906001600160a01b031681565b6040516001600160a01b039091168152602001610159565b3480156101bb57600080fd5b506101977f000000000000000000000000000000000000000000000000000000000000000081565b3480156101ef57600080fd5b506101756101fe366004611bcd565b610894565b34801561020f57600080fd5b50610218610988565b6040516101599190611cf7565b34801561023157600080fd5b50610175610240366004611d11565b610a16565b34801561025157600080fd5b5061014f600581565b34801561026657600080fd5b506101977f000000000000000000000000000000000000000000000000000000000000000081565b34801561029a57600080fd5b50610175610af0565b3480156102af57600080fd5b5061014f60085481565b3480156102c557600080fd5b50600454610197906001600160a01b031681565b3480156102e557600080fd5b506001546001600160a01b0316610197565b34801561030357600080fd5b50610175610312366004611a26565b610b04565b34801561032357600080fd5b5061014f609681565b34801561033857600080fd5b50600254610197906001600160a01b031681565b34801561035857600080fd5b50610175610367366004611db5565b610e83565b34801561037857600080fd5b506102186110b4565b34801561038d57600080fd5b506103e061039c366004611db5565b60076020526000908152604090208054600182015460028301546003840154600490940154929391929091906001600160a01b03811690600160a01b900460ff1686565b6040805196875260208701959095529385019290925260608401526001600160a01b03166080830152151560a082015260c001610159565b610175610426366004611dce565b6110c1565b34801561043757600080fd5b50610175610446366004611e62565b611647565b6000806104588442611e95565b9050828111156104655750815b600063b755980082610478886005611eae565b6104829190611eae565b61048c9190611ec5565b905061049b620f424082611ec5565b9695505050505050565b6104ad611682565b600034116104fc5760405162461bcd60e51b815260206004820152601760248201527611d85cc81c185e5b595b9d081a5cc81c995c5d5a5c9959604a1b60448201526064015b60405180910390fd5b60008381526007602052604090206004810154600160a01b900460ff1661055a5760405162461bcd60e51b81526020600482015260126024820152714c6f616e206973206e6f742061637469766560701b60448201526064016104f3565b60048101546001600160a01b031633146105a95760405162461bcd60e51b815260206004820152601060248201526f2737ba103a3432903137b93937bbb2b960811b60448201526064016104f3565b60006105c282600001548360020154846003015461044b565b905060008183600001546105d69190611ee7565b6002546040516323b872dd60e01b81529192506001600160a01b0316906323b872dd9061060b90339030908690600401611efa565b6020604051808303816000875af115801561062a573d6000803e3d6000fd5b505050506040513d601f19601f8201168201806040525081019061064e9190611f1e565b61066a5760405162461bcd60e51b81526004016104f390611f40565b60048301805460ff60a01b198116909155600184015460408051602081018a9052908101919091526001600160a01b03909116606082015260009060800160405160208183030381529060405290507f00000000000000000000000000000000000000000000000000000000000000006001600160a01b031663c62c20023430898986600260009054906101000a90046001600160a01b03166001600160a01b03166395d89b416040518163ffffffff1660e01b8152600401600060405180830381865afa158015610740573d6000803e3d6000fd5b505050506040513d6000823e601f3d908101601f191682016040526107689190810190611f69565b8b546040516001600160e01b031960e08a901b168152610792969594939291903390600401611fe0565b6000604051808303818588803b1580156107ab57600080fd5b505af11580156107bf573d6000803e3d6000fd5b5050604051631c92115f60e01b81526001600160a01b037f0000000000000000000000000000000000000000000000000000000000000000169350631c92115f925061081691506006906005908690600401612110565b600060405180830381600087803b15801561083057600080fd5b505af1158015610844573d6000803e3d6000fd5b505050507f42ed75eb1a514551abfd3fa3e47a5cad655985062409d6c0d337d5e2ad4525b88760405161087991815260200190565b60405180910390a15050505061088f6001600055565b505050565b600085856040516108a6929190612149565b604051908190038120631876eed960e01b825291506001600160a01b037f00000000000000000000000000000000000000000000000000000000000000001690631876eed99061090a908e908e908e908e908e9089908d908d908d90600401612182565b6020604051808303816000875af1158015610929573d6000803e3d6000fd5b505050506040513d601f19601f8201168201806040525081019061094d9190611f1e565b61096a57604051631403112d60e21b815260040160405180910390fd5b61097b8a8a8a8a8a8a8a8a8a6116db565b5050505050505050505050565b6006805461099590612059565b80601f01602080910402602001604051908101604052809291908181526020018280546109c190612059565b8015610a0e5780601f106109e357610100808354040283529160200191610a0e565b820191906000526020600020905b8154815290600101906020018083116109f157829003601f168201915b505050505081565b60008282604051610a28929190612149565b604051908190038120635f6970c360e01b825291506001600160a01b037f00000000000000000000000000000000000000000000000000000000000000001690635f6970c390610a86908b908b908b908b908b9089906004016121e1565b6020604051808303816000875af1158015610aa5573d6000803e3d6000fd5b505050506040513d601f19601f82011682018060405250810190610ac99190611f1e565b610ae657604051631403112d60e21b815260040160405180910390fd5b5050505050505050565b610af86118f2565b610b02600061191f565b565b610b0c611682565b6003546040516331a9108f60e11b81526004810184905233916001600160a01b031690636352211e90602401602060405180830381865afa158015610b55573d6000803e3d6000fd5b505050506040513d601f19601f82011682018060405250810190610b799190612222565b6001600160a01b031614610bca5760405162461bcd60e51b81526020600482015260186024820152774e6f7420746865206f776e6572206f66207468652052574160401b60448201526064016104f3565b60048054604051631579600f60e01b81529182018490526000916001600160a01b0390911690631579600f90602401602060405180830381865afa158015610c16573d6000803e3d6000fd5b505050506040513d601f19601f82011682018060405250810190610c3a919061223f565b9050609684610c4a836064611eae565b610c549190611ec5565b1015610c9c5760405162461bcd60e51b8152602060048201526017602482015276125b9cdd59999a58da595b9d0818dbdb1b185d195c985b604a1b60448201526064016104f3565b6008805460009182610cad83612258565b909155506040805160c081018252878152602080820188815242838501908152606084018981523360808601818152600160a0880181815260008b815260079098529689902097518855945194870194909455915160028601555160038086019190915591516004948501805494511515600160a01b026001600160a81b03199095166001600160a01b039283161794909417909355905493516323b872dd60e01b81529495509216926323b872dd92610d6d92909130918a9101611efa565b600060405180830381600087803b158015610d8757600080fd5b505af1158015610d9b573d6000803e3d6000fd5b505060025460405163a9059cbb60e01b8152336004820152602481018990526001600160a01b03909116925063a9059cbb91506044016020604051808303816000875af1158015610df0573d6000803e3d6000fd5b505050506040513d601f19601f82011682018060405250810190610e149190611f1e565b610e305760405162461bcd60e51b81526004016104f390611f40565b60408051828152336020820152908101869052606081018590527f3373919ad665425d2cddb4072830e5935b6ee308440fa99b23383648da473bc09060800160405180910390a1505061088f6001600055565b610e8b611682565b60008181526007602052604090206004810154600160a01b900460ff16610ee95760405162461bcd60e51b81526020600482015260126024820152714c6f616e206973206e6f742061637469766560701b60448201526064016104f3565b60048101546001600160a01b03163314610f385760405162461bcd60e51b815260206004820152601060248201526f2737ba103a3432903137b93937bbb2b960811b60448201526064016104f3565b6000610f5182600001548360020154846003015461044b565b90506000818360000154610f659190611ee7565b6002546040516323b872dd60e01b81529192506001600160a01b0316906323b872dd90610f9a90339030908690600401611efa565b6020604051808303816000875af1158015610fb9573d6000803e3d6000fd5b505050506040513d601f19601f82011682018060405250810190610fdd9190611f1e565b610ff95760405162461bcd60e51b81526004016104f390611f40565b60035460018401546040516323b872dd60e01b81526001600160a01b03909216916323b872dd916110309130913391600401611efa565b600060405180830381600087803b15801561104a57600080fd5b505af115801561105e573d6000803e3d6000fd5b5050505060048301805460ff60a01b191690556040518481527f9a7851747cd7ffb3fe0a32caf3da48b31f27cebe131267051640f8b72fc471869060200160405180910390a15050506110b16001600055565b50565b6005805461099590612059565b6000341161110b5760405162461bcd60e51b815260206004820152601760248201527611d85cc81c185e5b595b9d081a5cc81c995c5d5a5c9959604a1b60448201526064016104f3565b6003546040516331a9108f60e11b81526004810184905233916001600160a01b031690636352211e90602401602060405180830381865afa158015611154573d6000803e3d6000fd5b505050506040513d601f19601f820116820180604052508101906111789190612222565b6001600160a01b0316146111c95760405162461bcd60e51b81526020600482015260186024820152774e6f7420746865206f776e6572206f66207468652052574160401b60448201526064016104f3565b60048054604051631579600f60e01b81529182018490526000916001600160a01b0390911690631579600f90602401602060405180830381865afa158015611215573d6000803e3d6000fd5b505050506040513d601f19601f82011682018060405250810190611239919061223f565b9050609684611249836064611eae565b6112539190611ec5565b101561129b5760405162461bcd60e51b8152602060048201526017602482015276125b9cdd59999a58da595b9d0818dbdb1b185d195c985b604a1b60448201526064016104f3565b60408051336020820152908101859052606081018490526080810183905260009060a00160405160208183030381529060405290507f00000000000000000000000000000000000000000000000000000000000000006001600160a01b031663c62c200234308a8a86600260009054906101000a90046001600160a01b03166001600160a01b03166395d89b416040518163ffffffff1660e01b8152600401600060405180830381865afa158015611357573d6000803e3d6000fd5b505050506040513d6000823e601f3d908101601f1916820160405261137f9190810190611f69565b8c336040518963ffffffff1660e01b81526004016113a39796959493929190611fe0565b6000604051808303818588803b1580156113bc57600080fd5b505af11580156113d0573d6000803e3d6000fd5b50506003546040516323b872dd60e01b81526001600160a01b0390911693506323b872dd92506114099150339030908990600401611efa565b600060405180830381600087803b15801561142357600080fd5b505af1158015611437573d6000803e3d6000fd5b50506002546040516323b872dd60e01b81526001600160a01b0390911692506323b872dd915061146f90339030908a90600401611efa565b6020604051808303816000875af115801561148e573d6000803e3d6000fd5b505050506040513d601f19601f820116820180604052508101906114b29190611f1e565b5060025460405163095ea7b360e01b81526001600160a01b037f000000000000000000000000000000000000000000000000000000000000000081166004830152602482018890529091169063095ea7b3906044016020604051808303816000875af1158015611526573d6000803e3d6000fd5b505050506040513d601f19601f8201168201806040525081019061154a9190611f1e565b507f00000000000000000000000000000000000000000000000000000000000000006001600160a01b031663b5417084888884600260009054906101000a90046001600160a01b03166001600160a01b03166395d89b416040518163ffffffff1660e01b8152600401600060405180830381865afa1580156115d0573d6000803e3d6000fd5b505050506040513d6000823e601f3d908101601f191682016040526115f89190810190611f69565b8a6040518663ffffffff1660e01b8152600401611619959493929190612271565b600060405180830381600087803b15801561163357600080fd5b505af115801561097b573d6000803e3d6000fd5b61164f6118f2565b6001600160a01b03811661167957604051631e4fbdf760e01b8152600060048201526024016104f3565b6110b18161191f565b6002600054036116d45760405162461bcd60e51b815260206004820152601f60248201527f5265656e7472616e637947756172643a207265656e7472616e742063616c6c0060448201526064016104f3565b6002600055565b600260009054906101000a90046001600160a01b03166001600160a01b03166395d89b416040518163ffffffff1660e01b8152600401600060405180830381865afa15801561172e573d6000803e3d6000fd5b505050506040513d6000823e601f3d908101601f191682016040526117569190810190611f69565b80519060200120838360405161176d929190612149565b6040518091039020146117b25760405162461bcd60e51b815260206004820152600d60248201526c24b73b30b634b2103a37b5b2b760991b60448201526064016104f3565b60056117bf878983612317565b5060066117cd898b83612317565b5060008080806117df888a018a6123d8565b935093509350935060006117f585858585611971565b60025460405163a9059cbb60e01b81526001600160a01b0388811660048301526024820188905292935091169063a9059cbb906044016020604051808303816000875af115801561184a573d6000803e3d6000fd5b505050506040513d601f19601f8201168201806040525081019061186e9190611f1e565b61188a5760405162461bcd60e51b81526004016104f390611f40565b604080518281526001600160a01b0387166020820152908101859052606081018490527f3373919ad665425d2cddb4072830e5935b6ee308440fa99b23383648da473bc09060800160405180910390a15050505050505050505050505050565b505050505050565b6001546001600160a01b03163314610b025760405163118cdaa760e01b81523360048201526024016104f3565b600180546001600160a01b038381166001600160a01b0319831681179093556040519116919082907f8be0079c531659141344cd1fd0a4f28419497f9722a3daafe3b4186f6b6457e090600090a35050565b600880546000918291908261198583612258565b909155506040805160c081018252878152602080820188815242838501908152606084018981526001600160a01b03808e1660808701908152600160a0880181815260008b81526007909852989096209651875593519486019490945590516002850155516003840155516004909201805493511515600160a01b026001600160a81b03199094169290911691909117919091179055915050949350505050565b600080600060608486031215611a3b57600080fd5b505081359360208301359350604090920135919050565b634e487b7160e01b600052604160045260246000fd5b604051601f8201601f1916810167ffffffffffffffff81118282101715611a9157611a91611a52565b604052919050565b600067ffffffffffffffff821115611ab357611ab3611a52565b50601f01601f191660200190565b600082601f830112611ad257600080fd5b8135611ae5611ae082611a99565b611a68565b818152846020838601011115611afa57600080fd5b816020850160208301376000918101602001919091529392505050565b600080600060608486031215611b2c57600080fd5b83359250602084013567ffffffffffffffff80821115611b4b57600080fd5b611b5787838801611ac1565b93506040860135915080821115611b6d57600080fd5b50611b7a86828701611ac1565b9150509250925092565b60008083601f840112611b9657600080fd5b50813567ffffffffffffffff811115611bae57600080fd5b602083019150836020828501011115611bc657600080fd5b9250929050565b60008060008060008060008060008060c08b8d031215611bec57600080fd5b8a35995060208b013567ffffffffffffffff80821115611c0b57600080fd5b611c178e838f01611b84565b909b50995060408d0135915080821115611c3057600080fd5b611c3c8e838f01611b84565b909950975060608d0135915080821115611c5557600080fd5b611c618e838f01611b84565b909750955060808d0135915080821115611c7a57600080fd5b50611c878d828e01611b84565b9150809450508092505060a08b013590509295989b9194979a5092959850565b60005b83811015611cc2578181015183820152602001611caa565b50506000910152565b60008151808452611ce3816020860160208601611ca7565b601f01601f19169290920160200192915050565b602081526000611d0a6020830184611ccb565b9392505050565b60008060008060008060006080888a031215611d2c57600080fd5b87359650602088013567ffffffffffffffff80821115611d4b57600080fd5b611d578b838c01611b84565b909850965060408a0135915080821115611d7057600080fd5b611d7c8b838c01611b84565b909650945060608a0135915080821115611d9557600080fd5b50611da28a828b01611b84565b989b979a50959850939692959293505050565b600060208284031215611dc757600080fd5b5035919050565b600080600080600060a08688031215611de657600080fd5b853567ffffffffffffffff80821115611dfe57600080fd5b611e0a89838a01611ac1565b96506020880135915080821115611e2057600080fd5b50611e2d88828901611ac1565b959895975050505060408401359360608101359360809091013592509050565b6001600160a01b03811681146110b157600080fd5b600060208284031215611e7457600080fd5b8135611d0a81611e4d565b634e487b7160e01b600052601160045260246000fd5b81810381811115611ea857611ea8611e7f565b92915050565b8082028115828204841417611ea857611ea8611e7f565b600082611ee257634e487b7160e01b600052601260045260246000fd5b500490565b80820180821115611ea857611ea8611e7f565b6001600160a01b039384168152919092166020820152604081019190915260600190565b600060208284031215611f3057600080fd5b81518015158114611d0a57600080fd5b6020808252600f908201526e151c985b9cd9995c8819985a5b1959608a1b604082015260600190565b600060208284031215611f7b57600080fd5b815167ffffffffffffffff811115611f9257600080fd5b8201601f81018413611fa357600080fd5b8051611fb1611ae082611a99565b818152856020838501011115611fc657600080fd5b611fd7826020830160208601611ca7565b95945050505050565b600060018060a01b03808a16835260e0602084015261200260e084018a611ccb565b8381036040850152612014818a611ccb565b905083810360608501526120288189611ccb565b9050838103608085015261203c8188611ccb565b60a0850196909652509290921660c0909101525095945050505050565b600181811c9082168061206d57607f821691505b60208210810361208d57634e487b7160e01b600052602260045260246000fd5b50919050565b600081546120a081612059565b8085526020600183811680156120bd57600181146120d757612105565b60ff1985168884015283151560051b880183019550612105565b866000528260002060005b858110156120fd5781548a82018601529083019084016120e2565b890184019650505b505050505092915050565b6060815260006121236060830186612093565b82810360208401526121358186612093565b9050828103604084015261049b8185611ccb565b8183823760009101908152919050565b81835281816020850137506000828201602090810191909152601f909101601f19169091010190565b89815260c06020820152600061219c60c083018a8c612159565b82810360408401526121af81898b612159565b905086606084015282810360808401526121ca818688612159565b9150508260a08301529a9950505050505050505050565b8681526080602082015260006121fb608083018789612159565b828103604084015261220e818688612159565b915050826060830152979650505050505050565b60006020828403121561223457600080fd5b8151611d0a81611e4d565b60006020828403121561225157600080fd5b5051919050565b60006001820161226a5761226a611e7f565b5060010190565b60a08152600061228460a0830188611ccb565b82810360208401526122968188611ccb565b905082810360408401526122aa8187611ccb565b905082810360608401526122be8186611ccb565b9150508260808301529695505050505050565b601f82111561088f57600081815260208120601f850160051c810160208610156122f85750805b601f850160051c820191505b818110156118ea57828155600101612304565b67ffffffffffffffff83111561232f5761232f611a52565b6123438361233d8354612059565b836122d1565b6000601f841160018114612377576000851561235f5750838201355b600019600387901b1c1916600186901b1783556123d1565b600083815260209020601f19861690835b828110156123a85786850135825560209485019460019092019101612388565b50868210156123c55760001960f88860031b161c19848701351681555b505060018560011b0183555b5050505050565b600080600080608085870312156123ee57600080fd5b84356123f981611e4d565b96602086013596506040860135956060013594509250505056fea2646970667358221220a3074b784f08578fbd506fc7a0986960ab625017e78d9b8c0e13c92b7062b21e64736f6c63430008140033",
  "linkReferences": {},
  "deployedLinkReferences": {}
}