{
  "_format": "hh-sol-artifact-1",
  "contractName": "RWAOracle",
  "sourceName": "contracts/RWAOracle.sol",
  "abi": [
    {
      "inputs": [
        {
          "internalType": "address",
          "name": "initialOwner",
          "type": "address"
        }
      ],
      "stateMutability": "nonpayable",
      "type": "constructor"
    },
    {
      "inputs": [
        {
          "internalType": "address",
          "name": "owner",
          "type": "address"
        }
      ],
      "name": "OwnableInvalidOwner",
      "type": "error"
    },
    {
      "inputs": [
        {
          "internalType": "address",
          "name": "account",
          "type": "address"
        }
      ],
      "name": "OwnableUnauthorizedAccount",
      "type": "error"
    },
    {
      "anonymous": false,
      "inputs": [
        {
          "indexed": true,
          "internalType": "address",
          "name": "previousOwner",
          "type": "address"
        },
        {
          "indexed": true,
          "internalType": "address",
          "name": "newOwner",
          "type": "address"
        }
      ],
      "name": "OwnershipTransferred",
      "type": "event"
    },
    {
      "anonymous": false,
      "inputs": [
        {
          "indexed": true,
          "internalType": "uint256",
          "name": "tokenId",
          "type": "uint256"
        },
        {
          "indexed": false,
          "internalType": "uint256",
          "name": "value",
          "type": "uint256"
        }
      ],
      "name": "RWAValueUpdated",
      "type": "event"
    },
    {
      "inputs": [
        {
          "internalType": "uint256",
          "name": "_tokenId",
          "type": "uint256"
        }
      ],
      "name": "getRWAValue",
      "outputs": [
        {
          "internalType": "uint256",
          "name": "",
          "type": "uint256"
        }
      ],
      "stateMutability": "view",
      "type": "function"
    },
    {
      "inputs": [],
      "name": "owner",
      "outputs": [
        {
          "internalType": "address",
          "name": "",
          "type": "address"
        }
      ],
      "stateMutability": "view",
      "type": "function"
    },
    {
      "inputs": [],
      "name": "renounceOwnership",
      "outputs": [],
      "stateMutability": "nonpayable",
      "type": "function"
    },
    {
      "inputs": [
        {
          "internalType": "address",
          "name": "newOwner",
          "type": "address"
        }
      ],
      "name": "transferOwnership",
      "outputs": [],
      "stateMutability": "nonpayable",
      "type": "function"
    },
    {
      "inputs": [
        {
          "internalType": "uint256",
          "name": "_tokenId",
          "type": "uint256"
        },
        {
          "internalType": "uint256",
          "name": "_value",
          "type": "uint256"
        }
      ],
      "name": "updateRWAValue",
      "outputs": [],
      "stateMutability": "nonpayable",
      "type": "function"
    }
  ],
  "bytecode": "0x608060405234801561001057600080fd5b506040516103a53803806103a583398101604081905261002f916100be565b806001600160a01b03811661005e57604051631e4fbdf760e01b81526000600482015260240160405180910390fd5b6100678161006e565b50506100ee565b600080546001600160a01b038381166001600160a01b0319831681178455604051919092169283917f8be0079c531659141344cd1fd0a4f28419497f9722a3daafe3b4186f6b6457e09190a35050565b6000602082840312156100d057600080fd5b81516001600160a01b03811681146100e757600080fd5b9392505050565b6102a8806100fd6000396000f3fe608060405234801561001057600080fd5b50600436106100575760003560e01c80631579600f1461005c5780636f6f20271461008f578063715018a6146100a45780638da5cb5b146100ac578063f2fde38b146100c7575b600080fd5b61007c61006a366004610207565b60009081526001602052604090205490565b6040519081526020015b60405180910390f35b6100a261009d366004610220565b6100da565b005b6100a2610133565b6000546040516001600160a01b039091168152602001610086565b6100a26100d5366004610242565b610147565b6100e261018a565b600082815260016020526040908190208290555182907f15c54a6af00e107bf08cbec14d2e5a0c8f3f51cb9172464eff923789d09a868e906101279084815260200190565b60405180910390a25050565b61013b61018a565b61014560006101b7565b565b61014f61018a565b6001600160a01b03811661017e57604051631e4fbdf760e01b8152600060048201526024015b60405180910390fd5b610187816101b7565b50565b6000546001600160a01b031633146101455760405163118cdaa760e01b8152336004820152602401610175565b600080546001600160a01b038381166001600160a01b0319831681178455604051919092169283917f8be0079c531659141344cd1fd0a4f28419497f9722a3daafe3b4186f6b6457e09190a35050565b60006020828403121561021957600080fd5b5035919050565b6000806040838503121561023357600080fd5b50508035926020909101359150565b60006020828403121561025457600080fd5b81356001600160a01b038116811461026b57600080fd5b939250505056fea264697066735822122017f2f256d866c4d845700bf2e63026431715bbf6fc9e1a642c8330fc77971af364736f6c63430008140033",
  "linkReferences": {},
  "deployedLinkReferences": {}
}